{
  "_format": "hh-sol-artifact-1",
  "contractName": "MultisigAccountFactory",
  "sourceName": "contracts/MultisigAccountFactory.sol",
  "abi": [
    {
      "inputs": [
        {
          "internalType": "contract IEntryPoint",
          "name": "_entryPoint",
          "type": "address"
        }
      ],
      "stateMutability": "nonpayable",
      "type": "constructor"
    },
    {
      "anonymous": false,
      "inputs": [
        {
          "indexed": true,
          "internalType": "address",
          "name": "account",
          "type": "address"
        }
      ],
      "name": "MultisigAccountCreated",
      "type": "event"
    },
    {
      "inputs": [],
      "name": "accountImplementation",
      "outputs": [
        {
          "internalType": "contract MultisigAccount",
          "name": "",
          "type": "address"
        }
      ],
      "stateMutability": "view",
      "type": "function"
    },
    {
      "inputs": [
        {
          "internalType": "address",
          "name": "owner",
          "type": "address"
        },
        {
          "internalType": "uint256",
          "name": "salt",
          "type": "uint256"
        }
      ],
      "name": "createAccount",
      "outputs": [
        {
          "internalType": "contract MultisigAccount",
          "name": "ret",
          "type": "address"
        }
      ],
      "stateMutability": "nonpayable",
      "type": "function"
    },
    {
      "inputs": [
        {
          "internalType": "address",
          "name": "owner",
          "type": "address"
        },
        {
          "internalType": "uint256",
          "name": "salt",
          "type": "uint256"
        }
      ],
      "name": "getAddress",
      "outputs": [
        {
          "internalType": "address",
          "name": "",
          "type": "address"
        }
      ],
      "stateMutability": "view",
      "type": "function"
    }
  ],
  "bytecode": "0x60a060405234801561001057600080fd5b5060405161317e38038061317e83398101604081905261002f91610088565b8060405161003c9061007b565b6001600160a01b039091168152602001604051809103906000f080158015610068573d6000803e3d6000fd5b506001600160a01b0316608052506100b8565b6123d680610da883390190565b60006020828403121561009a57600080fd5b81516001600160a01b03811681146100b157600080fd5b9392505050565b608051610cc86100e060003960008181604b01528181610114015261029a0152610cc86000f3fe608060405234801561001057600080fd5b50600436106100415760003560e01c806311464fbe146100465780635fbfb9cf146100965780638cb84e18146100a9575b600080fd5b61006d7f000000000000000000000000000000000000000000000000000000000000000081565b60405173ffffffffffffffffffffffffffffffffffffffff909116815260200160405180910390f35b61006d6100a43660046103df565b6100bc565b61006d6100b73660046103df565b610230565b6000806100c98484610230565b905073ffffffffffffffffffffffffffffffffffffffff81163b80156100f15750905061022a565b60405173ffffffffffffffffffffffffffffffffffffffff8616602482015284907f000000000000000000000000000000000000000000000000000000000000000090604401604080517fffffffffffffffffffffffffffffffffffffffffffffffffffffffffffffffe08184030181529181526020820180517bffffffffffffffffffffffffffffffffffffffffffffffffffffffff167fc4d66de800000000000000000000000000000000000000000000000000000000179052516101b7906103d2565b6101c2929190610448565b8190604051809103906000f59050801580156101e2573d6000803e3d6000fd5b5060405190935073ffffffffffffffffffffffffffffffffffffffff8316907f14a9c4373146171ce7cea4bc898fca4f861e6634f93d24e596ca39ebecf7578690600090a250505b92915050565b60006103998260001b60405180602001610249906103d2565b7fffffffffffffffffffffffffffffffffffffffffffffffffffffffffffffffe082820381018352601f90910116604081905273ffffffffffffffffffffffffffffffffffffffff871660248201527f000000000000000000000000000000000000000000000000000000000000000090604401604080517fffffffffffffffffffffffffffffffffffffffffffffffffffffffffffffffe0818403018152918152602080830180517bffffffffffffffffffffffffffffffffffffffffffffffffffffffff167fc4d66de800000000000000000000000000000000000000000000000000000000179052905161034293929101610448565b604080517fffffffffffffffffffffffffffffffffffffffffffffffffffffffffffffffe08184030181529082905261037e92916020016104b6565b604051602081830303815290604052805190602001206103a0565b9392505050565b60006103998383306000604051836040820152846020820152828152600b8101905060ff815360559020949350505050565b6107ad806104e683390190565b600080604083850312156103f257600080fd5b823573ffffffffffffffffffffffffffffffffffffffff8116811461041657600080fd5b946020939093013593505050565b60005b8381101561043f578181015183820152602001610427565b50506000910152565b73ffffffffffffffffffffffffffffffffffffffff831681526040602082015260008251806040840152610483816060850160208701610424565b601f017fffffffffffffffffffffffffffffffffffffffffffffffffffffffffffffffe016919091016060019392505050565b600083516104c8818460208801610424565b8351908301906104dc818360208801610424565b0194935050505056fe60806040526040516107ad3803806107ad83398101604081905261002291610319565b61002e82826000610035565b5050610436565b61003e8361006b565b60008251118061004b5750805b156100665761006483836100ab60201b6100291760201c565b505b505050565b610074816100d7565b6040516001600160a01b038216907fbc7cd75a20ee27fd9adebab32041f755214dbc6bffa90cc0225b39da2e5c2d3b90600090a250565b60606100d08383604051806060016040528060278152602001610786602791396101a9565b9392505050565b6100ea8161022260201b6100551760201c565b6101515760405162461bcd60e51b815260206004820152602d60248201527f455243313936373a206e657720696d706c656d656e746174696f6e206973206e60448201526c1bdd08184818dbdb9d1c9858dd609a1b60648201526084015b60405180910390fd5b806101887f360894a13ba1a3210667c828492db98dca3e2076cc3735a920a3ca505d382bbc60001b61023160201b6100711760201c565b80546001600160a01b0319166001600160a01b039290921691909117905550565b6060600080856001600160a01b0316856040516101c691906103e7565b600060405180830381855af49150503d8060008114610201576040519150601f19603f3d011682016040523d82523d6000602084013e610206565b606091505b50909250905061021886838387610234565b9695505050505050565b6001600160a01b03163b151590565b90565b606083156102a357825160000361029c576001600160a01b0385163b61029c5760405162461bcd60e51b815260206004820152601d60248201527f416464726573733a2063616c6c20746f206e6f6e2d636f6e74726163740000006044820152606401610148565b50816102ad565b6102ad83836102b5565b949350505050565b8151156102c55781518083602001fd5b8060405162461bcd60e51b81526004016101489190610403565b634e487b7160e01b600052604160045260246000fd5b60005b838110156103105781810151838201526020016102f8565b50506000910152565b6000806040838503121561032c57600080fd5b82516001600160a01b038116811461034357600080fd5b60208401519092506001600160401b038082111561036057600080fd5b818501915085601f83011261037457600080fd5b815181811115610386576103866102df565b604051601f8201601f19908116603f011681019083821181831017156103ae576103ae6102df565b816040528281528860208487010111156103c757600080fd5b6103d88360208301602088016102f5565b80955050505050509250929050565b600082516103f98184602087016102f5565b9190910192915050565b60208152600082518060208401526104228160408501602087016102f5565b601f01601f19169190910160400192915050565b610341806104456000396000f3fe60806040523661001357610011610017565b005b6100115b610027610022610074565b6100b9565b565b606061004e83836040518060600160405280602781526020016102e5602791396100dd565b9392505050565b73ffffffffffffffffffffffffffffffffffffffff163b151590565b90565b60006100b47f360894a13ba1a3210667c828492db98dca3e2076cc3735a920a3ca505d382bbc5473ffffffffffffffffffffffffffffffffffffffff1690565b905090565b3660008037600080366000845af43d6000803e8080156100d8573d6000f35b3d6000fd5b60606000808573ffffffffffffffffffffffffffffffffffffffff16856040516101079190610277565b600060405180830381855af49150503d8060008114610142576040519150601f19603f3d011682016040523d82523d6000602084013e610147565b606091505b509150915061015886838387610162565b9695505050505050565b606083156101fd5782516000036101f65773ffffffffffffffffffffffffffffffffffffffff85163b6101f6576040517f08c379a000000000000000000000000000000000000000000000000000000000815260206004820152601d60248201527f416464726573733a2063616c6c20746f206e6f6e2d636f6e747261637400000060448201526064015b60405180910390fd5b5081610207565b610207838361020f565b949350505050565b81511561021f5781518083602001fd5b806040517f08c379a00000000000000000000000000000000000000000000000000000000081526004016101ed9190610293565b60005b8381101561026e578181015183820152602001610256565b50506000910152565b60008251610289818460208701610253565b9190910192915050565b60208152600082518060208401526102b2816040850160208701610253565b601f017fffffffffffffffffffffffffffffffffffffffffffffffffffffffffffffffe016919091016040019291505056fe416464726573733a206c6f772d6c6576656c2064656c65676174652063616c6c206661696c6564a2646970667358221220e67fa41f25d682209d79c07815debb550c72479d90129d9416824365b2aa288664736f6c63430008120033416464726573733a206c6f772d6c6576656c2064656c65676174652063616c6c206661696c6564a2646970667358221220911b584f2a5916e2896cc8a580756e119e8c649628415d3d63c5e1cec564993364736f6c6343000812003360c0604052306080523480156200001557600080fd5b50604051620023d6380380620023d6833981016040819052620000389162000118565b6001600160a01b03811660a0526200004f62000056565b506200014a565b600054610100900460ff1615620000c35760405162461bcd60e51b815260206004820152602760248201527f496e697469616c697a61626c653a20636f6e747261637420697320696e697469604482015266616c697a696e6760c81b606482015260840160405180910390fd5b60005460ff908116101562000116576000805460ff191660ff9081179091556040519081527f7f26b83ff96e1f2b6a682f133852f6798a09c465da95921460cefb38474024989060200160405180910390a15b565b6000602082840312156200012b57600080fd5b81516001600160a01b03811681146200014357600080fd5b9392505050565b60805160a051612235620001a1600039600081816102c601528181610cc901528181610d9c015261127c0152600081816105ed0152818161069d01528181610818015281816108c80152610a1101526122356000f3fe6080604052600436106100eb5760003560e01c806352d1902d1161008a578063bc197c8111610059578063bc197c811461030a578063c4d66de814610352578063d087d28814610372578063f23a6e611461038757600080fd5b806352d1902d1461024a5780638da5cb5b1461025f578063b0d691fe146102b7578063b61d27f6146102ea57600080fd5b806318dfb3c7116100c657806318dfb3c7146101c95780633659cfe6146101e95780633a871cdd146102095780634f1ef2861461023757600080fd5b806223de29146100f757806301ffc9a71461011e578063150b7a021461015357600080fd5b366100f257005b600080fd5b34801561010357600080fd5b5061011c610112366004611b21565b5050505050505050565b005b34801561012a57600080fd5b5061013e610139366004611bcc565b6103cd565b60405190151581526020015b60405180910390f35b34801561015f57600080fd5b5061019861016e366004611c0e565b7f150b7a020000000000000000000000000000000000000000000000000000000095945050505050565b6040517fffffffff00000000000000000000000000000000000000000000000000000000909116815260200161014a565b3480156101d557600080fd5b5061011c6101e4366004611cc2565b6104b2565b3480156101f557600080fd5b5061011c610204366004611d2e565b6105d6565b34801561021557600080fd5b50610229610224366004611d49565b6107db565b60405190815260200161014a565b61011c610245366004611dcc565b610801565b34801561025657600080fd5b506102296109f7565b34801561026b57600080fd5b506000546102929062010000900473ffffffffffffffffffffffffffffffffffffffff1681565b60405173ffffffffffffffffffffffffffffffffffffffff909116815260200161014a565b3480156102c357600080fd5b507f0000000000000000000000000000000000000000000000000000000000000000610292565b3480156102f657600080fd5b5061011c610305366004611eac565b610ae3565b34801561031657600080fd5b50610198610325366004611efa565b7fbc197c810000000000000000000000000000000000000000000000000000000098975050505050505050565b34801561035e57600080fd5b5061011c61036d366004611d2e565b610b32565b34801561037e57600080fd5b50610229610cc5565b34801561039357600080fd5b506101986103a2366004611f94565b7ff23a6e61000000000000000000000000000000000000000000000000000000009695505050505050565b60007fffffffff0000000000000000000000000000000000000000000000000000000082167f150b7a0200000000000000000000000000000000000000000000000000000000148061046057507fffffffff0000000000000000000000000000000000000000000000000000000082167f4e2312e000000000000000000000000000000000000000000000000000000000145b806104ac57507fffffffff0000000000000000000000000000000000000000000000000000000082167f01ffc9a700000000000000000000000000000000000000000000000000000000145b92915050565b6104ba610d84565b828114610528576040517f08c379a000000000000000000000000000000000000000000000000000000000815260206004820152601360248201527f77726f6e67206172726179206c656e677468730000000000000000000000000060448201526064015b60405180910390fd5b60005b838110156105cf576105bd8585838181106105485761054861200c565b905060200201602081019061055d9190611d2e565b60008585858181106105715761057161200c565b9050602002810190610583919061203b565b8080601f016020809104026020016040519081016040528093929190818152602001838380828437600092019190915250610e2592505050565b806105c7816120a0565b91505061052b565b5050505050565b73ffffffffffffffffffffffffffffffffffffffff7f000000000000000000000000000000000000000000000000000000000000000016300361069b576040517f08c379a000000000000000000000000000000000000000000000000000000000815260206004820152602c60248201527f46756e6374696f6e206d7573742062652063616c6c6564207468726f7567682060448201527f64656c656761746563616c6c0000000000000000000000000000000000000000606482015260840161051f565b7f000000000000000000000000000000000000000000000000000000000000000073ffffffffffffffffffffffffffffffffffffffff166107107f360894a13ba1a3210667c828492db98dca3e2076cc3735a920a3ca505d382bbc5473ffffffffffffffffffffffffffffffffffffffff1690565b73ffffffffffffffffffffffffffffffffffffffff16146107b3576040517f08c379a000000000000000000000000000000000000000000000000000000000815260206004820152602c60248201527f46756e6374696f6e206d7573742062652063616c6c6564207468726f7567682060448201527f6163746976652070726f78790000000000000000000000000000000000000000606482015260840161051f565b6107bc81610ea2565b604080516000808252602082019092526107d891839190610eaa565b50565b60006107e5610d84565b6107ef84846110ae565b90506107fa826111bf565b9392505050565b73ffffffffffffffffffffffffffffffffffffffff7f00000000000000000000000000000000000000000000000000000000000000001630036108c6576040517f08c379a000000000000000000000000000000000000000000000000000000000815260206004820152602c60248201527f46756e6374696f6e206d7573742062652063616c6c6564207468726f7567682060448201527f64656c656761746563616c6c0000000000000000000000000000000000000000606482015260840161051f565b7f000000000000000000000000000000000000000000000000000000000000000073ffffffffffffffffffffffffffffffffffffffff1661093b7f360894a13ba1a3210667c828492db98dca3e2076cc3735a920a3ca505d382bbc5473ffffffffffffffffffffffffffffffffffffffff1690565b73ffffffffffffffffffffffffffffffffffffffff16146109de576040517f08c379a000000000000000000000000000000000000000000000000000000000815260206004820152602c60248201527f46756e6374696f6e206d7573742062652063616c6c6564207468726f7567682060448201527f6163746976652070726f78790000000000000000000000000000000000000000606482015260840161051f565b6109e782610ea2565b6109f382826001610eaa565b5050565b60003073ffffffffffffffffffffffffffffffffffffffff7f00000000000000000000000000000000000000000000000000000000000000001614610abe576040517f08c379a000000000000000000000000000000000000000000000000000000000815260206004820152603860248201527f555550535570677261646561626c653a206d757374206e6f742062652063616c60448201527f6c6564207468726f7567682064656c656761746563616c6c0000000000000000606482015260840161051f565b507f360894a13ba1a3210667c828492db98dca3e2076cc3735a920a3ca505d382bbc90565b610aeb610d84565b610b2c848484848080601f016020809104026020016040519081016040528093929190818152602001838380828437600092019190915250610e2592505050565b50505050565b600054610100900460ff1615808015610b525750600054600160ff909116105b80610b6c5750303b158015610b6c575060005460ff166001145b610bf8576040517f08c379a000000000000000000000000000000000000000000000000000000000815260206004820152602e60248201527f496e697469616c697a61626c653a20636f6e747261637420697320616c72656160448201527f647920696e697469616c697a6564000000000000000000000000000000000000606482015260840161051f565b600080547fffffffffffffffffffffffffffffffffffffffffffffffffffffffffffffff001660011790558015610c5657600080547fffffffffffffffffffffffffffffffffffffffffffffffffffffffffffff00ff166101001790555b610c5f8261122a565b80156109f357600080547fffffffffffffffffffffffffffffffffffffffffffffffffffffffffffff00ff169055604051600181527f7f26b83ff96e1f2b6a682f133852f6798a09c465da95921460cefb38474024989060200160405180910390a15050565b60007f00000000000000000000000000000000000000000000000000000000000000006040517f35567e1a0000000000000000000000000000000000000000000000000000000081523060048201526000602482015273ffffffffffffffffffffffffffffffffffffffff91909116906335567e1a90604401602060405180830381865afa158015610d5b573d6000803e3d6000fd5b505050506040513d601f19601f82011682018060405250810190610d7f91906120ff565b905090565b3373ffffffffffffffffffffffffffffffffffffffff7f00000000000000000000000000000000000000000000000000000000000000001614610e23576040517f08c379a000000000000000000000000000000000000000000000000000000000815260206004820152601c60248201527f6163636f756e743a206e6f742066726f6d20456e747279506f696e7400000000604482015260640161051f565b565b6000808473ffffffffffffffffffffffffffffffffffffffff168484604051610e4e919061213c565b60006040518083038185875af1925050503d8060008114610e8b576040519150601f19603f3d011682016040523d82523d6000602084013e610e90565b606091505b5091509150816105cf57805160208201fd5b6107d86112c5565b7f4910fdfa16fed3260ed0e7147f7cc6da11a60208b5b9406d12a635614ffd91435460ff1615610ee257610edd83611356565b505050565b8273ffffffffffffffffffffffffffffffffffffffff166352d1902d6040518163ffffffff1660e01b8152600401602060405180830381865afa925050508015610f67575060408051601f3d9081017fffffffffffffffffffffffffffffffffffffffffffffffffffffffffffffffe0168201909252610f64918101906120ff565b60015b610ff3576040517f08c379a000000000000000000000000000000000000000000000000000000000815260206004820152602e60248201527f45524331393637557067726164653a206e657720696d706c656d656e7461746960448201527f6f6e206973206e6f742055555053000000000000000000000000000000000000606482015260840161051f565b7f360894a13ba1a3210667c828492db98dca3e2076cc3735a920a3ca505d382bbc81146110a2576040517f08c379a000000000000000000000000000000000000000000000000000000000815260206004820152602960248201527f45524331393637557067726164653a20756e737570706f727465642070726f7860448201527f6961626c65555549440000000000000000000000000000000000000000000000606482015260840161051f565b50610edd838383611460565b6000806110fc6110c261014086018661203b565b8080601f01602080910402602001604051908101604052809392919081815260200183838082843760009201919091525061148592505050565b90506111078161153e565b6111155760019150506104ac565b600061116e846040517f19457468657265756d205369676e6564204d6573736167653a0a3332000000006020820152603c8101829052600090605c01604051602081830303815290604052805190602001209050919050565b9050600061117c82846115c8565b60005490915073ffffffffffffffffffffffffffffffffffffffff8083166201000090920416146111b357600193505050506104ac565b50600095945050505050565b80156107d85760405160009033907fffffffffffffffffffffffffffffffffffffffffffffffffffffffffffffffff90849084818181858888f193505050503d80600081146105cf576040519150601f19603f3d011682016040523d82523d6000602084013e6105cf565b600080547fffffffffffffffffffff0000000000000000000000000000000000000000ffff166201000073ffffffffffffffffffffffffffffffffffffffff84811691820292909217835560405190927f0000000000000000000000000000000000000000000000000000000000000000909216917f0d53ec4c6cd13bcbf6c6d46eeb3371afca04470d4491ed94849faafbe7697b7891a350565b60005462010000900473ffffffffffffffffffffffffffffffffffffffff163314806112f057503330145b610e23576040517f08c379a000000000000000000000000000000000000000000000000000000000815260206004820152600a60248201527f6f6e6c79206f776e657200000000000000000000000000000000000000000000604482015260640161051f565b73ffffffffffffffffffffffffffffffffffffffff81163b6113fa576040517f08c379a000000000000000000000000000000000000000000000000000000000815260206004820152602d60248201527f455243313936373a206e657720696d706c656d656e746174696f6e206973206e60448201527f6f74206120636f6e747261637400000000000000000000000000000000000000606482015260840161051f565b7f360894a13ba1a3210667c828492db98dca3e2076cc3735a920a3ca505d382bbc80547fffffffffffffffffffffffff00000000000000000000000000000000000000001673ffffffffffffffffffffffffffffffffffffffff92909216919091179055565b611469836115ec565b6000825111806114765750805b15610edd57610b2c8383611639565b606081516041146114f2576040517f08c379a000000000000000000000000000000000000000000000000000000000815260206004820152600e60248201527f496e76616c6964206c656e677468000000000000000000000000000000000000604482015260640161051f565b60408051604180825260808201909252906020820181803683370190505090506020820151604083015160ff604185015116826020850152816040850152806060850153505050919050565b6000815160411461155157506000919050565b60208201516040830151604184015160ff169190601b831480159061157a57508260ff16601c14155b1561158a57506000949350505050565b7f7fffffffffffffffffffffffffffffff5d576e7357a4501ddfe92f46681b20a08111156115bd57506000949350505050565b506001949350505050565b60008060006115d7858561165e565b915091506115e4816116a3565b509392505050565b6115f581611356565b60405173ffffffffffffffffffffffffffffffffffffffff8216907fbc7cd75a20ee27fd9adebab32041f755214dbc6bffa90cc0225b39da2e5c2d3b90600090a250565b60606107fa83836040518060600160405280602781526020016121d960279139611856565b60008082516041036116945760208301516040840151606085015160001a611688878285856118db565b9450945050505061169c565b506000905060025b9250929050565b60008160048111156116b7576116b7612158565b036116bf5750565b60018160048111156116d3576116d3612158565b0361173a576040517f08c379a000000000000000000000000000000000000000000000000000000000815260206004820152601860248201527f45434453413a20696e76616c6964207369676e61747572650000000000000000604482015260640161051f565b600281600481111561174e5761174e612158565b036117b5576040517f08c379a000000000000000000000000000000000000000000000000000000000815260206004820152601f60248201527f45434453413a20696e76616c6964207369676e6174757265206c656e67746800604482015260640161051f565b60038160048111156117c9576117c9612158565b036107d8576040517f08c379a000000000000000000000000000000000000000000000000000000000815260206004820152602260248201527f45434453413a20696e76616c6964207369676e6174757265202773272076616c60448201527f7565000000000000000000000000000000000000000000000000000000000000606482015260840161051f565b60606000808573ffffffffffffffffffffffffffffffffffffffff1685604051611880919061213c565b600060405180830381855af49150503d80600081146118bb576040519150601f19603f3d011682016040523d82523d6000602084013e6118c0565b606091505b50915091506118d1868383876119ca565b9695505050505050565b6000807f7fffffffffffffffffffffffffffffff5d576e7357a4501ddfe92f46681b20a083111561191257506000905060036119c1565b6040805160008082526020820180845289905260ff881692820192909252606081018690526080810185905260019060a0016020604051602081039080840390855afa158015611966573d6000803e3d6000fd5b50506040517fffffffffffffffffffffffffffffffffffffffffffffffffffffffffffffffe0015191505073ffffffffffffffffffffffffffffffffffffffff81166119ba576000600192509250506119c1565b9150600090505b94509492505050565b60608315611a60578251600003611a595773ffffffffffffffffffffffffffffffffffffffff85163b611a59576040517f08c379a000000000000000000000000000000000000000000000000000000000815260206004820152601d60248201527f416464726573733a2063616c6c20746f206e6f6e2d636f6e7472616374000000604482015260640161051f565b5081611a6a565b611a6a8383611a72565b949350505050565b815115611a825781518083602001fd5b806040517f08c379a000000000000000000000000000000000000000000000000000000000815260040161051f9190612187565b803573ffffffffffffffffffffffffffffffffffffffff81168114611ada57600080fd5b919050565b60008083601f840112611af157600080fd5b50813567ffffffffffffffff811115611b0957600080fd5b60208301915083602082850101111561169c57600080fd5b60008060008060008060008060c0898b031215611b3d57600080fd5b611b4689611ab6565b9750611b5460208a01611ab6565b9650611b6260408a01611ab6565b955060608901359450608089013567ffffffffffffffff80821115611b8657600080fd5b611b928c838d01611adf565b909650945060a08b0135915080821115611bab57600080fd5b50611bb88b828c01611adf565b999c989b5096995094979396929594505050565b600060208284031215611bde57600080fd5b81357fffffffff00000000000000000000000000000000000000000000000000000000811681146107fa57600080fd5b600080600080600060808688031215611c2657600080fd5b611c2f86611ab6565b9450611c3d60208701611ab6565b935060408601359250606086013567ffffffffffffffff811115611c6057600080fd5b611c6c88828901611adf565b969995985093965092949392505050565b60008083601f840112611c8f57600080fd5b50813567ffffffffffffffff811115611ca757600080fd5b6020830191508360208260051b850101111561169c57600080fd5b60008060008060408587031215611cd857600080fd5b843567ffffffffffffffff80821115611cf057600080fd5b611cfc88838901611c7d565b90965094506020870135915080821115611d1557600080fd5b50611d2287828801611c7d565b95989497509550505050565b600060208284031215611d4057600080fd5b6107fa82611ab6565b600080600060608486031215611d5e57600080fd5b833567ffffffffffffffff811115611d7557600080fd5b84016101608187031215611d8857600080fd5b95602085013595506040909401359392505050565b7f4e487b7100000000000000000000000000000000000000000000000000000000600052604160045260246000fd5b60008060408385031215611ddf57600080fd5b611de883611ab6565b9150602083013567ffffffffffffffff80821115611e0557600080fd5b818501915085601f830112611e1957600080fd5b813581811115611e2b57611e2b611d9d565b604051601f82017fffffffffffffffffffffffffffffffffffffffffffffffffffffffffffffffe0908116603f01168101908382118183101715611e7157611e71611d9d565b81604052828152886020848701011115611e8a57600080fd5b8260208601602083013760006020848301015280955050505050509250929050565b60008060008060608587031215611ec257600080fd5b611ecb85611ab6565b935060208501359250604085013567ffffffffffffffff811115611eee57600080fd5b611d2287828801611adf565b60008060008060008060008060a0898b031215611f1657600080fd5b611f1f89611ab6565b9750611f2d60208a01611ab6565b9650604089013567ffffffffffffffff80821115611f4a57600080fd5b611f568c838d01611c7d565b909850965060608b0135915080821115611f6f57600080fd5b611f7b8c838d01611c7d565b909650945060808b0135915080821115611bab57600080fd5b60008060008060008060a08789031215611fad57600080fd5b611fb687611ab6565b9550611fc460208801611ab6565b94506040870135935060608701359250608087013567ffffffffffffffff811115611fee57600080fd5b611ffa89828a01611adf565b979a9699509497509295939492505050565b7f4e487b7100000000000000000000000000000000000000000000000000000000600052603260045260246000fd5b60008083357fffffffffffffffffffffffffffffffffffffffffffffffffffffffffffffffe184360301811261207057600080fd5b83018035915067ffffffffffffffff82111561208b57600080fd5b60200191503681900382131561169c57600080fd5b60007fffffffffffffffffffffffffffffffffffffffffffffffffffffffffffffffff82036120f8577f4e487b7100000000000000000000000000000000000000000000000000000000600052601160045260246000fd5b5060010190565b60006020828403121561211157600080fd5b5051919050565b60005b8381101561213357818101518382015260200161211b565b50506000910152565b6000825161214e818460208701612118565b9190910192915050565b7f4e487b7100000000000000000000000000000000000000000000000000000000600052602160045260246000fd5b60208152600082518060208401526121a6816040850160208701612118565b601f017fffffffffffffffffffffffffffffffffffffffffffffffffffffffffffffffe016919091016040019291505056fe416464726573733a206c6f772d6c6576656c2064656c65676174652063616c6c206661696c6564a264697066735822122034b273aa111e6bf585e8da39ea4f90bc6f1c9a3171d6af29b1e89ba4d578876a64736f6c63430008120033",
  "linkReferences": {},
  "deployedLinkReferences": {}
}